:020000040000FA
:0408000098EF04F079
:1008080004EF04F0FACF23F0FBCF24F0E9CF25F072
:100818000CEF04F0D8CF01F0E8CF02F0E0CF03F0FE
:10082800FACF04F0FBCF05F0E9CF06F0EACF07F0E6
:10083800E1CF08F0E2CF09F0D9CF0AF0DACF0BF018
:10084800F3CF0CF0F4CF0DF0F6CF0EF0F7CF0FF09A
:10085800F8CF10F0F5CF11F011C0F5FF10C0F8FF78
:100868000FC0F7FF0EC0F6FF0DC0F4FF0CC0F3FF7A
:100878000BC0DAFF0AC0D9FF09C0E2FF08C0E1FFD8
:1008880007C0EAFF06C0E9FF05C0FBFF04C0FAFF86
:1008980003C0E0FF02C0E8FF01C0D8FF1000D8CFB6
:1008A80012F0E8CF13F0E0CF14F0FACF15F0FBCF39
:1008B80016F0E9CF17F0EACF18F0E1CF19F0E2CF40
:1008C8001AF0D9CF1BF0DACF1CF0F3CF1DF0F4CF1C
:1008D8001EF0F6CF1FF0F7CF20F0F8CF21F0F5CFBC
:1008E80022F022C0F5FF21C0F8FF20C0F7FF1FC08B
:1008F800F6FF1EC0F4FF1DC0F3FF1CC0DAFF1BC0CB
:10090800D9FF1AC0E2FF19C0E1FF18C0EAFF17C0FB
:10091800E9FF16C0FBFF15C0FAFF14C0E0FF13C0C3
:10092800E8FF12C0D8FF1000FDEF04F00600E9CF81
:1009380062F0EACF63F0E1CF64F0E2CF65F0D9CF9F
:1009480066F0DACF67F0F3CF68F0F4CF69F0F6CF4E
:100958006AF0F7CF6BF0F8CF6CF0F5CF6DF06DC0A3
:10096800F5FF6CC0F8FF6BC0F7FF6AC0F6FF69C0FF
:10097800F4FF68C0F3FF67C0DAFF66C0D9FF65C03F
:10098800E2FF64C0E1FF63C0EAFF62C0E9FF61C043
:10099800FBFF60C0FAFF11000001716B706B000172
:1009A8007151800A800F0A0ED8B4705D11E26F6B26
:1009B8006E6B00016F51800A0B0F300ED8B46E5D5C
:1009C80003E26E4B6F2BF5D70001704B712BE7D705
:1009D800120001EC05F000EC05F00F0EC112FC0E40
:1009E8008D1696168D80D0EC04F08D90D0EC04F026
:0C09F800F9D70001EDEF04F0120012002E
:020000040020DA
:08000000FFFFFFFFFFFFFFFF00
:020000040030CA
:0E000000240E3F1EFF0181FF0FC00FA00F4016
:00000001FF
