:020000040000FA
:06000000EEEF03F0120018
:020006000000F8
:0600080004EF04F01200F9
:060018000CEF04F01200E1
:02001E000001DF
:10002000776B1E0E716E0401400E096F200E0A6F71
:10003000040E0B6F880E086F0401200E0E6F040E65
:100040000F6F400E0C6F1200550EA76EAA0EA76E12
:10005000A68212000001756B040121510001755D3B
:1000600020E275C000F0016A026A040122510024F6
:10007000F36E23510120F46E24510220F86EF4CF68
:10008000F7FFF3CFF6FF0800F5CF76F000017551CA
:10009000EA6A250FE96E040EEA2276C0EFFF752B9F
:1000A000DBD7F86A1200F00E04012217840EA66E48
:1000B0000001756B040121510001755D26E2755147
:1000C000EA6A250FE96E040EEA22EFCF03F075C04D
:1000D00000F0016A026A040122510024F36E2351E8
:1000E0000120F46E24510220F86EF4CFF7FFF3CF15
:1000F000F6FF03C0F5FF0C000F0E000175150F0889
:1001000001E1A2DF0001752BD5D71200940EA66E77
:100110000001756B040121510001755D1EE27551EE
:10012000006E016A060ED89000360136E804FBE145
:10013000026A01BE0268040122510024F36E2351B9
:100140000120F46E24510220F86EF4CFF7FFF3CFB4
:10015000F6FF7ADF0001752BDDD7F86A1200A66A78
:100160000001756B040121510001755D10E204016D
:10017000225100017525A96EA6807551EA6A250FE6
:10018000E96E040EEA22A8CFEFFF752BEBD7120021
:100190000001756B040121510001755D15E2040138
:1001A000225100017525A96E7551EA6A250FE96E85
:1001B000040EEA22EF50A86E040EA66E45DFA6B22A
:1001C000FED70001752BE6D71200C40EA66E000103
:1001D000756B040121510001755D21E27551EA6AD8
:1001E000250FE96E040EEA22EFCF03F075C000F090
:1001F000016A026A040122510024F36E2351012096
:10020000F46E24510220F86EF4CFF7FFF3CFF6FF1F
:1002100003C0F5FF0C0018DF0001752BDAD7F86A70
:100220001200060E00017C5D03E36D50020B01E03D
:100230007CD00001770511E104010CBF0DD0040151
:10024000400E096F400E040108170401087D880E56
:10025000040108130001776B68D0040108BF65D062
:100260000001756B04012051320A4AE0CD0A39E0E1
:10027000F80A32E0020A2BE0010A24E0070A1DE036
:10028000010A16E0030A0FE0070A0DE0060A01E082
:100290003BD00401140E226F0401010E236F0001F4
:1002A000040E756F32D0D6DE050E000175272DD0F5
:1002B000FADE0001010E756F28D028DF0001010E63
:1002C000756F23D04CDF050E000175271ED060DF4F
:1002D0000001010E756F19D078DF0001010E756FF6
:1002E00014D06D960001786B796B00017807000ED1
:1002F000795B00017851791101E0F7D7FF0005D053
:100300000001010E756F01D000D00001010E776F62
:10031000000175510AE075C00DF4400E04010C1780
:0C03200004010C7D880E04010C13120077
:04032C006C5035E1FB
:10033000040100513C0BE842E8420D082CE10401A5
:10034000049F180E0401021924E1040E031921E18F
:10035000100E026F040E036F0001686B6851006E8F
:10036000016A080E005C000E015813E26851EA6A47
:10037000180FE96E040EEA22EF50E66E6851EA6A41
:10038000100FE96E040EEA22E552E750EF6E682B7B
:10039000E5D7D2EF01F0DBEF01F0040E6C5C01E178
:1003A00026D812000001606B616B666B676B93EC83
:1003B00002F049EF02F0020E0001605D0DE1040160
:1003C000180E026F040E036F080E016F00BD02D0FD
:1003D000C80E0BD0880E09D0A1D80401080E016FF9
:1003E000100E026F040E036F8C0E006F1200040ECD
:1003F00000017C5D09E112C46EFF6E50000802E24C
:10040000050E01D0030E7C6F0001600509E10AD8DA
:10041000040104BD02D0C80E01D0880E046F120082
:100420008EEF02F00001080E665D000E675903E2D0
:1004300066C06AF002D0080E6A6F6AC005F46A519D
:10044000006E016A0050665F0150675B180E646FB2
:10045000040E656F6A511CE000017DA307D062C0E5
:10046000F6FF63C0F7FF0800F55005D062C0E9FF52
:1004700063C0EAFFEF5064C0E9FF65C0EAFFEF6EBA
:100480000001622B000E6323642B65236A07E2D709
:1004900012006D98000161510BE10401080E016F1B
:1004A000100E026F040E036F840E006F040123D040
:1004B000040110AF22D0000166510401165D000155
:1004C00067510401175904E216C466F017C467F0B7
:1004D000A9DF0001010E606F0401080E016F100E0C
:1004E000026F040E036F800E006F0401180E066F7A
:1004F000040E076FC80E046F12000001020E606F39
:100500000401056BC80E046F0401080E016F180E7C
:10051000026F040E036FC80E006F12000001606BC3
:060520000401046B12004F
:0A05260004011051600BE842E842A6
:10053000E842E842E842000901E012001151080ACD
:1005400039E0010A35E00F0A0AE0030A01E012006F
:100550000001010E616F0001040E7C6F12000001AA
:10056000010E616F0401130507E10001580E626F6F
:10057000070E636F120E13D0020E135D07E1000128
:100580006A0E626F070E636F200E09D0030E135DB3
:100590000AE100018A0E626F070E636F040E00010C
:1005A000666F676B02D00001616B00017D831200F2
:1005B000E8EF02F00001010E616F00017E0E626F34
:1005C000000E636F00017D930001010E666F120043
:1005D0000001010E616F12C47EF00401125104E1AA
:1005E0000001050E7C6F12000001060E7C6F0FEFFC
:0205F00000F019
:0E05F200080E6D6E6DBAFED7686A110E696E46
:100600000001020E7C6F12006850040B09E0695073
:10061000040B06E06D92699468A402D06894FCD73C
:100620006850010B04E06950010B01E025D86850C7
:10063000100B0AE06950100B07E0698468986D821E
:10064000A19AA08A0300A19A6850200B06E0695085
:10065000200B03E070B07090689A030E00017C5D7F
:1006600001E209D06850080B06E06950080B03E06E
:1006700096EC01F068961200686A7B0E696E6E6AED
:10068000160E706E68A605D0689600D000D00000E7
:10069000F9D76D988EEC02F00401080E016F040189
:1006A000100E026F040E036F04018C0E006F000128
:0A06B0007E6B0001030E7C6F120048
:0606BA00060EF66E000EB4
:1006C000F76E000EF86E00010900F550706F09001A
:1006D000F550716F03E1706701D03DD00900F5500E
:1006E0006B6F0900F5506C6F0900F5506D6F0900D4
:1006F0000900F550E96E0900F550EA6E090009009D
:100700000900F5506E6F0900F5506F6F0900090080
:10071000F6CF72F0F7CF73F0F8CF74F06BC0F6FF3E
:100720006CC0F7FF6DC0F8FF00016E5302E16F531C
:1007300007E00900F550EE6E6E07F8E26F07F9D793
:1007400072C0F6FF73C0F7FF74C0F8FF00017007B6
:08075000000E715BBFD712001F
:0807580012010002000000087C
:10076000D8040B0001000000000109022000010173
:100770000080320904000002FFFFFF0007050102AC
:0E078000400000070581024000000403090448
:02078E00C1CFD9
:1007900080F00F0EC11284A604D080C0C1FF00EF0C
:1007A00004F000017A6B7B6B140E6F6EF9EC02F0B3
:0C07B00004EC03F011EC01F0FBD7120088
:0407BC00000EF36ECA
:1007C00000EE00F0080E01D81200EA6002D0EE6AD6
:0C07D000FCD7F350E9601200EE6AFCD781
:0407DC0013EE00F028
:1007E00023EE00F0F86A059C5DEC03F0FCEC03F0EE
:0807F000C7EC03F0FBD7120077
:0207F8001200ED
:020000040030CA
:0100000024DB
:010001000EF0
:010002003FBE
:010003001EDE
:0100050001F9
:010006008178
:010008000FE8
:01000900C036
:01000A000FE6
:01000B00A054
:01000C000FE4
:01000D0040B2
:00000001FF
